:020000040000FA
:020000000A28CC
:10000800FE00030EF2000A08F300EA290B28831702
:100018004C30FD000130FE00BE30FF00203084006F
:100028001E228313D430FD000130FE008A30FF0009
:10003800A03084001E226C30FD000130FE003E30EE
:10004800FF00203084001E22EC01ED01F601F701CB
:10005800F80183012F2803221129FD30831203138D
:10006800850029297608D40001300310D40DFF3EFD
:10007800031D39280310540D203E840083170008FF
:10008800D500840A0008D6005608831203136D02AF
:10009800031D5428831603135508831203136C0297
:1000A800031C5728582860280130F6070318F70A58
:1000B8000030F707EC01ED01003077020B3003192F
:1000C8007602031C682869286C280230292229290D
:1000D800760883160313D40001300310D40DFF3EB5
:1000E800031D71280310540D223E84000009831259
:1000F8000313850029297608D40001300310D40D94
:10010800FF3E031D82280310540DA03E8400831374
:100118000008D500840A0008D60056088312031385
:100128006D02031D9D2883160313550883120313BC
:100138006C02031CA028A128A9280130F60703187F
:10014800F70A0030F707EC01ED01003077020D30B7
:1001580003197602031CB128B228B52803302922D6
:100168002929760883160313D40001300310D40D0F
:10017800FF3E031DBA280310540DA23E8400000957
:1001880083120313850029297608D400013003104F
:10019800D40DFF3E031DCB280310540D203E8400D0
:1001A80083130008D500840A0008D6005608831275
:1001B80003136D02031DE6288316031355088312E3
:1001C80003136C02031CE928EA28F2280130F60719
:1001D8000318F70A0030F707EC01ED010030770249
:1001E800133003197602031CFA28FB28FE28003076
:1001F80029222929760883160313D4000130031015
:10020800D40DFF3E031D03290310540D223E840024
:10021800000983120313850029297808831603131C
:10022800D400D5015508003A03191B292929540877
:10023800003A03193128013A03193628033A0319F9
:100248007F28013A0319C82829290D30831603137A
:10025800D500FB30D400D40B2F29D50B2F29000053
:10026800013083120313EC070318ED0A0030ED0781
:1002780011290A28CD34003444340034A53400341C
:10028800403400341E340034443400340A3400341A
:100298004034003414340034543400340A34003404
:1002A800503400340F340034543400340A340034E9
:1002B800503400341E340034543400340A340034CA
:1002C800503400340A340034543400340A340034CE
:1002D800503400340A340034543400340A340034BE
:1002E800503400340A340034543400340A340034AE
:1002F800503400341E34003454340034FF34003495
:1003080014340034FF34003410340034DC34003446
:100318001034003414340034043400340A34003403
:10032800003400340A340034043400340A3400340D
:100338000034003414340034043400340A340034F3
:10034800003400341E34003404340034463400349D
:10035800443400340B340034403400341434003452
:10036800443400340A340034403400344634003411
:10037800443400340B34003482340034FF34003405
:1003880003340034FF34003403340034D2340034EE
:100398000334003432340034063400340A34003470
:1003A8000234003414340034063400340A3400347F
:1003B800103400340A340034143400340F34003458
:1003C800103400347D340034143400340B1CED290F
:1003D800EE29FC2983120313861EF329F429FB292D
:1003E8007808031DF829F929FB29013035220B105B
:1003F80073088A00720E8300FE0E7E0E0900073015
:10040800831203139F00FF308500831603138501B1
:10041800831203138601FF308316031386008117A6
:100428000B108B1501178B170B1708007E088A0015
:100438007F0882001A228000840A04087D060319B6
:100448000034FF0A0319FE0A1E2AF5007508F40095
:100458007408F80083120313EC01ED01F601F701AB
:100468000800F1007108F0007008F8008312031307
:0A047800EC01ED01F601F7010800A8
:02400E00183F59
:00000001FF
